{"abi":[{"type":"constructor","inputs":[{"name":"_router","type":"address","internalType":"address"},{"name":"_agent","type":"address","internalType":"address"},{"name":"_priceFeed","type":"address","internalType":"address"}],"stateMutability":"nonpayable"},{"type":"function","name":"BASE_RATIO","inputs":[],"outputs":[{"name":"","type":"uint256","internalType":"uint256"}],"stateMutability":"view"},{"type":"function","name":"PRECISION","inputs":[],"outputs":[{"name":"","type":"uint256","internalType":"uint256"}],"stateMutability":"view"},{"type":"function","name":"ccipReceive","inputs":[{"name":"message","type":"tuple","internalType":"struct Client.Any2EvmMessage","components":[{"name":"messageId","type":"bytes32","internalType":"bytes32"},{"name":"sourceChainSelector","type":"uint64","internalType":"uint64"},{"name":"sender","type":"bytes","internalType":"bytes"},{"name":"data","type":"bytes","internalType":"bytes"},{"name":"destTokenAmounts","type":"tuple[]","internalType":"struct Client.EvmTokenAmount[]","components":[{"name":"token","type":"address","internalType":"address"},{"name":"amount","type":"uint256","internalType":"uint256"}]}]}],"outputs":[],"stateMutability":"nonpayable"},{"type":"function","name":"depositCollateral","inputs":[],"outputs":[],"stateMutability":"payable"},{"type":"function","name":"getCollateralValue","inputs":[{"name":"_user","type":"address","internalType":"address"}],"outputs":[{"name":"","type":"uint256","internalType":"uint256"}],"stateMutability":"view"},{"type":"function","name":"getHealthFactor","inputs":[{"name":"_user","type":"address","internalType":"address"}],"outputs":[{"name":"","type":"uint256","internalType":"uint256"}],"stateMutability":"view"},{"type":"function","name":"getLatestPrice","inputs":[],"outputs":[{"name":"","type":"uint256","internalType":"uint256"}],"stateMutability":"view"},{"type":"function","name":"getRouter","inputs":[],"outputs":[{"name":"","type":"address","internalType":"address"}],"stateMutability":"view"},{"type":"function","name":"getUserVaultStats","inputs":[{"name":"_user","type":"address","internalType":"address"}],"outputs":[{"name":"","type":"uint256","internalType":"uint256"},{"name":"","type":"uint256","internalType":"uint256"},{"name":"","type":"uint256","internalType":"uint256"}],"stateMutability":"view"},{"type":"function","name":"liquidate","inputs":[{"name":"_target","type":"address","internalType":"address"}],"outputs":[],"stateMutability":"payable"},{"type":"function","name":"mintSynthetic","inputs":[{"name":"_amount","type":"uint256","internalType":"uint256"}],"outputs":[],"stateMutability":"nonpayable"},{"type":"function","name":"owner","inputs":[],"outputs":[{"name":"","type":"address","internalType":"address"}],"stateMutability":"view"},{"type":"function","name":"renounceOwnership","inputs":[],"outputs":[],"stateMutability":"nonpayable"},{"type":"function","name":"repaySynthetic","inputs":[{"name":"_amount","type":"uint256","internalType":"uint256"}],"outputs":[],"stateMutability":"nonpayable"},{"type":"function","name":"sentientAgent","inputs":[],"outputs":[{"name":"","type":"address","internalType":"address"}],"stateMutability":"view"},{"type":"function","name":"setDynamicCollateralRatio","inputs":[{"name":"_user","type":"address","internalType":"address"},{"name":"_newRatio","type":"uint256","internalType":"uint256"}],"outputs":[],"stateMutability":"nonpayable"},{"type":"function","name":"supportsInterface","inputs":[{"name":"interfaceId","type":"bytes4","internalType":"bytes4"}],"outputs":[{"name":"","type":"bool","internalType":"bool"}],"stateMutability":"pure"},{"type":"function","name":"transferOwnership","inputs":[{"name":"newOwner","type":"address","internalType":"address"}],"outputs":[],"stateMutability":"nonpayable"},{"type":"function","name":"updateAgent","inputs":[{"name":"_newAgent","type":"address","internalType":"address"}],"outputs":[],"stateMutability":"nonpayable"},{"type":"function","name":"userCollateral","inputs":[{"name":"","type":"address","internalType":"address"}],"outputs":[{"name":"","type":"uint256","internalType":"uint256"}],"stateMutability":"view"},{"type":"function","name":"userCollateralRatio","inputs":[{"name":"","type":"address","internalType":"address"}],"outputs":[{"name":"","type":"uint256","internalType":"uint256"}],"stateMutability":"view"},{"type":"function","name":"userDebt","inputs":[{"name":"","type":"address","internalType":"address"}],"outputs":[{"name":"","type":"uint256","internalType":"uint256"}],"stateMutability":"view"},{"type":"function","name":"withdrawCollateral","inputs":[{"name":"_amount","type":"uint256","internalType":"uint256"}],"outputs":[],"stateMutability":"nonpayable"},{"type":"event","name":"AgentUpdated","inputs":[{"name":"newAgent","type":"address","indexed":true,"internalType":"address"}],"anonymous":false},{"type":"event","name":"CollateralDeposited","inputs":[{"name":"user","type":"address","indexed":true,"internalType":"address"},{"name":"amount","type":"uint256","indexed":false,"internalType":"uint256"},{"name":"isCrossChain","type":"bool","indexed":false,"internalType":"bool"}],"anonymous":false},{"type":"event","name":"CollateralWithdrawn","inputs":[{"name":"user","type":"address","indexed":true,"internalType":"address"},{"name":"amount","type":"uint256","indexed":false,"internalType":"uint256"}],"anonymous":false},{"type":"event","name":"Liquidated","inputs":[{"name":"user","type":"address","indexed":true,"internalType":"address"},{"name":"liquidator","type":"address","indexed":true,"internalType":"address"},{"name":"collateralTaken","type":"uint256","indexed":false,"internalType":"uint256"},{"name":"debtRepaid","type":"uint256","indexed":false,"internalType":"uint256"}],"anonymous":false},{"type":"event","name":"OwnershipTransferred","inputs":[{"name":"previousOwner","type":"address","indexed":true,"internalType":"address"},{"name":"newOwner","type":"address","indexed":true,"internalType":"address"}],"anonymous":false},{"type":"event","name":"RatioUpdated","inputs":[{"name":"user","type":"address","indexed":true,"internalType":"address"},{"name":"newRatio","type":"uint256","indexed":false,"internalType":"uint256"}],"anonymous":false},{"type":"event","name":"SyntheticMinted","inputs":[{"name":"user","type":"address","indexed":true,"internalType":"address"},{"name":"amount","type":"uint256","indexed":false,"internalType":"uint256"}],"anonymous":false},{"type":"event","name":"SyntheticRepaid","inputs":[{"name":"user","type":"address","indexed":true,"internalType":"address"},{"name":"amount","type":"uint256","indexed":false,"internalType":"uint256"}],"anonymous":false},{"type":"error","name":"InvalidRouter","inputs":[{"name":"router","type":"address","internalType":"address"}]},{"type":"error","name":"OwnableInvalidOwner","inputs":[{"name":"owner","type":"address","internalType":"address"}]},{"type":"error","name":"OwnableUnauthorizedAccount","inputs":[{"name":"account","type":"address","internalType":"address"}]},{"type":"error","name":"ReentrancyGuardReentrantCall","inputs":[]}],"bytecode":{"object":"0x60a060405234801561000f575f5ffd5b506040516130573803806130578339818101604052810190610031919061049f565b33835f73ffffffffffffffffffffffffffffffffffffffff168173ffffffffffffffffffffffffffffffffffffffff16036100a3575f6040517fd7f7333400000000000000000000000000000000000000000000000000000000815260040161009a91906104fe565b60405180910390fd5b8073ffffffffffffffffffffffffffffffffffffffff1660808173ffffffffffffffffffffffffffffffffffffffff16815250505060016100f66100eb61034e60201b60201c565b61037760201b60201c565b5f01819055505f73ffffffffffffffffffffffffffffffffffffffff168173ffffffffffffffffffffffffffffffffffffffff160361016c575f6040517f1e4fbdf700000000000000000000000000000000000000000000000000000000815260040161016391906104fe565b60405180910390fd5b61017b8161038060201b60201c565b505f73ffffffffffffffffffffffffffffffffffffffff168373ffffffffffffffffffffffffffffffffffffffff16036101ea576040517f08c379a00000000000000000000000000000000000000000000000000000000081526004016101e190610571565b60405180910390fd5b5f73ffffffffffffffffffffffffffffffffffffffff168273ffffffffffffffffffffffffffffffffffffffff1603610258576040517f08c379a000000000000000000000000000000000000000000000000000000000815260040161024f906105d9565b60405180910390fd5b5f73ffffffffffffffffffffffffffffffffffffffff168173ffffffffffffffffffffffffffffffffffffffff16036102c6576040517f08c379a00000000000000000000000000000000000000000000000000000000081526004016102bd90610641565b60405180910390fd5b8160045f6101000a81548173ffffffffffffffffffffffffffffffffffffffff021916908373ffffffffffffffffffffffffffffffffffffffff1602179055508060055f6101000a81548173ffffffffffffffffffffffffffffffffffffffff021916908373ffffffffffffffffffffffffffffffffffffffff16021790555050505061065f565b5f7f9b779b17422d0df92223018b32b4d1fa46e071723d6817e2486d003becc55f005f1b905090565b5f819050919050565b5f5f5f9054906101000a900473ffffffffffffffffffffffffffffffffffffffff169050815f5f6101000a81548173ffffffffffffffffffffffffffffffffffffffff021916908373ffffffffffffffffffffffffffffffffffffffff1602179055508173ffffffffffffffffffffffffffffffffffffffff168173ffffffffffffffffffffffffffffffffffffffff167f8be0079c531659141344cd1fd0a4f28419497f9722a3daafe3b4186f6b6457e060405160405180910390a35050565b5f5ffd5b5f73ffffffffffffffffffffffffffffffffffffffff82169050919050565b5f61046e82610445565b9050919050565b61047e81610464565b8114610488575f5ffd5b50565b5f8151905061049981610475565b92915050565b5f5f5f606084860312156104b6576104b5610441565b5b5f6104c38682870161048b565b93505060206104d48682870161048b565b92505060406104e58682870161048b565b9150509250925092565b6104f881610464565b82525050565b5f6020820190506105115f8301846104ef565b92915050565b5f82825260208201905092915050565b7f496e76616c696420526f757465720000000000000000000000000000000000005f82015250565b5f61055b600e83610517565b915061056682610527565b602082019050919050565b5f6020820190508181035f8301526105888161054f565b9050919050565b7f496e76616c6964204167656e74000000000000000000000000000000000000005f82015250565b5f6105c3600d83610517565b91506105ce8261058f565b602082019050919050565b5f6020820190508181035f8301526105f0816105b7565b9050919050565b7f496e76616c6964205072696365204665656400000000000000000000000000005f82015250565b5f61062b601283610517565b9150610636826105f7565b602082019050919050565b5f6020820190508181035f8301526106588161061f565b9050919050565b6080516129d961067e5f395f8181610e8201526110da01526129d95ff3fe60806040526004361061013f575f3560e01c806392411dbe116100b5578063bf6423b61161006e578063bf6423b61461041f578063cee0c18414610447578063dd1dc3251461046f578063f2fde38b14610499578063f69f1e4a146104c1578063fe6bcd7c146104fd5761013f565b806392411dbe146102eb57806397904e4214610315578063aaf5eb6814610351578063b0f479a11461037b578063b69e5c77146103a5578063b9b03fd7146103e15761013f565b80636f758140116101075780636f75814014610213578063715018a61461021d5780637b99dd661461023357806385572ffb1461026f5780638da5cb5b146102975780638e15f473146102c15761013f565b806301ffc9a7146101435780632f8655681461017f57806349f41a421461019b5780635089b584146101c35780636112fe2e146101eb575b5f5ffd5b34801561014e575f5ffd5b5061016960048036038101906101649190611ab4565b610539565b6040516101769190611af9565b60405180910390f35b61019960048036038101906101949190611b6c565b61060a565b005b3480156101a6575f5ffd5b506101c160048036038101906101bc9190611b6c565b610887565b005b3480156101ce575f5ffd5b506101e960048036038101906101e49190611bca565b610983565b005b3480156101f6575f5ffd5b50610211600480360381019061020c9190611c08565b610a63565b005b61021b610cd9565b005b348015610228575f5ffd5b50610231610e58565b005b34801561023e575f5ffd5b5061025960048036038101906102549190611b6c565b610e6b565b6040516102669190611c42565b60405180910390f35b34801561027a575f5ffd5b5061029560048036038101906102909190611c7d565b610e80565b005b3480156102a2575f5ffd5b506102ab610f25565b6040516102b89190611cd3565b60405180910390f35b3480156102cc575f5ffd5b506102d5610f4c565b6040516102e29190611c42565b60405180910390f35b3480156102f6575f5ffd5b506102ff61103b565b60405161030c9190611cd3565b60405180910390f35b348015610320575f5ffd5b5061033b60048036038101906103369190611b6c565b611060565b6040516103489190611c42565b60405180910390f35b34801561035c575f5ffd5b506103656110cb565b6040516103729190611c42565b60405180910390f35b348015610386575f5ffd5b5061038f6110d7565b60405161039c9190611cd3565b60405180910390f35b3480156103b0575f5ffd5b506103cb60048036038101906103c69190611b6c565b6110fe565b6040516103d89190611c42565b60405180910390f35b3480156103ec575f5ffd5b5061040760048036038101906104029190611b6c565b611113565b60405161041693929190611cec565b60405180910390f35b34801561042a575f5ffd5b5061044560048036038101906104409190611c08565b6111a8565b005b348015610452575f5ffd5b5061046d60048036038101906104689190611c08565b6112dc565b005b34801561047a575f5ffd5b506104836113e3565b6040516104909190611c42565b60405180910390f35b3480156104a4575f5ffd5b506104bf60048036038101906104ba9190611b6c565b6113e8565b005b3480156104cc575f5ffd5b506104e760048036038101906104e29190611b6c565b61146c565b6040516104f49190611c42565b60405180910390f35b348015610508575f5ffd5b50610523600480360381019061051e9190611b6c565b611481565b6040516105309190611c42565b60405180910390f35b5f7f85572ffb000000000000000000000000000000000000000000000000000000007bffffffffffffffffffffffffffffffffffffffffffffffffffffffff1916827bffffffffffffffffffffffffffffffffffffffffffffffffffffffff1916148061060357507f01ffc9a7000000000000000000000000000000000000000000000000000000007bffffffffffffffffffffffffffffffffffffffffffffffffffffffff1916827bffffffffffffffffffffffffffffffffffffffffffffffffffffffff1916145b9050919050565b6106126115e9565b670de0b6b3a764000061062482611481565b10610664576040517f08c379a000000000000000000000000000000000000000000000000000000000815260040161065b90611d7b565b60405180910390fd5b5f60015f8373ffffffffffffffffffffffffffffffffffffffff1673ffffffffffffffffffffffffffffffffffffffff1681526020019081526020015f205490505f60025f8473ffffffffffffffffffffffffffffffffffffffff1673ffffffffffffffffffffffffffffffffffffffff1681526020019081526020015f205490505f60025f8573ffffffffffffffffffffffffffffffffffffffff1673ffffffffffffffffffffffffffffffffffffffff1681526020019081526020015f20819055505f60015f8573ffffffffffffffffffffffffffffffffffffffff1673ffffffffffffffffffffffffffffffffffffffff1681526020019081526020015f20819055505f3373ffffffffffffffffffffffffffffffffffffffff168360405161078f90611dc6565b5f6040518083038185875af1925050503d805f81146107c9576040519150601f19603f3d011682016040523d82523d5f602084013e6107ce565b606091505b5050905080610812576040517f08c379a000000000000000000000000000000000000000000000000000000000815260040161080990611e24565b60405180910390fd5b3373ffffffffffffffffffffffffffffffffffffffff168473ffffffffffffffffffffffffffffffffffffffff167f1f0c6615429d1cdae0dfa233abf91d3b31cdbdd82c8081389832a61e1072f1ea8585604051610871929190611e42565b60405180910390a350505061088461160b565b50565b61088f611625565b5f73ffffffffffffffffffffffffffffffffffffffff168173ffffffffffffffffffffffffffffffffffffffff16036108fd576040517f08c379a00000000000000000000000000000000000000000000000000000000081526004016108f490611eb3565b60405180910390fd5b8060045f6101000a81548173ffffffffffffffffffffffffffffffffffffffff021916908373ffffffffffffffffffffffffffffffffffffffff1602179055508073ffffffffffffffffffffffffffffffffffffffff167fe9f337c154e801e0f86b6bc993df9a2cd349bb210385592c7a52e38ea726334f60405160405180910390a250565b61098b6116ac565b60698110156109cf576040517f08c379a00000000000000000000000000000000000000000000000000000000081526004016109c690611f1b565b60405180910390fd5b8060035f8473ffffffffffffffffffffffffffffffffffffffff1673ffffffffffffffffffffffffffffffffffffffff1681526020019081526020015f20819055508173ffffffffffffffffffffffffffffffffffffffff167f7457f46b65b2cfa88cec783243c0646b0ccab8781703e47700d1a5457d409a0f82604051610a579190611c42565b60405180910390a25050565b610a6b6115e9565b8060015f3373ffffffffffffffffffffffffffffffffffffffff1673ffffffffffffffffffffffffffffffffffffffff1681526020019081526020015f20541015610aeb576040517f08c379a0000000000000000000000000000000000000000000000000000000008152600401610ae290611f83565b60405180910390fd5b8060015f3373ffffffffffffffffffffffffffffffffffffffff1673ffffffffffffffffffffffffffffffffffffffff1681526020019081526020015f205f828254610b379190611fce565b925050819055505f60025f3373ffffffffffffffffffffffffffffffffffffffff1673ffffffffffffffffffffffffffffffffffffffff1681526020019081526020015f20541115610bd757670de0b6b3a7640000610b9533611481565b1015610bd6576040517f08c379a0000000000000000000000000000000000000000000000000000000008152600401610bcd9061204b565b60405180910390fd5b5b5f3373ffffffffffffffffffffffffffffffffffffffff1682604051610bfc90611dc6565b5f6040518083038185875af1925050503d805f8114610c36576040519150601f19603f3d011682016040523d82523d5f602084013e610c3b565b606091505b5050905080610c7f576040517f08c379a0000000000000000000000000000000000000000000000000000000008152600401610c76906120b3565b60405180910390fd5b3373ffffffffffffffffffffffffffffffffffffffff167fc30fcfbcaac9e0deffa719714eaa82396ff506a0d0d0eebe170830177288715d83604051610cc59190611c42565b60405180910390a250610cd661160b565b50565b610ce16115e9565b5f3411610d23576040517f08c379a0000000000000000000000000000000000000000000000000000000008152600401610d1a9061211b565b60405180910390fd5b3460015f3373ffffffffffffffffffffffffffffffffffffffff1673ffffffffffffffffffffffffffffffffffffffff1681526020019081526020015f205f828254610d6f9190612139565b925050819055505f60035f3373ffffffffffffffffffffffffffffffffffffffff1673ffffffffffffffffffffffffffffffffffffffff1681526020019081526020015f205403610dfe57609660035f3373ffffffffffffffffffffffffffffffffffffffff1673ffffffffffffffffffffffffffffffffffffffff1681526020019081526020015f20819055505b3373ffffffffffffffffffffffffffffffffffffffff167ffe671c76cdf692b140b5703c07cfb25d42ddaa92d6566df7d188db5acf436bc8345f604051610e4692919061216c565b60405180910390a2610e5661160b565b565b610e60611625565b610e695f61173d565b565b6003602052805f5260405f205f915090505481565b7f000000000000000000000000000000000000000000000000000000000000000073ffffffffffffffffffffffffffffffffffffffff163373ffffffffffffffffffffffffffffffffffffffff1614610f1057336040517fd7f73334000000000000000000000000000000000000000000000000000000008152600401610f079190611cd3565b60405180910390fd5b610f2281610f1d90612535565b6117fe565b50565b5f5f5f9054906101000a900473ffffffffffffffffffffffffffffffffffffffff16905090565b5f5f60055f9054906101000a900473ffffffffffffffffffffffffffffffffffffffff1673ffffffffffffffffffffffffffffffffffffffff1663feaf968c6040518163ffffffff1660e01b815260040160a060405180830381865afa158015610fb8573d5f5f3e3d5ffd5b505050506040513d601f19601f82011682018060405250810190610fdc91906125cd565b5050509150505f8113611024576040517f08c379a000000000000000000000000000000000000000000000000000000000815260040161101b9061268e565b60405180910390fd5b6402540be4008161103591906126ac565b91505090565b60045f9054906101000a900473ffffffffffffffffffffffffffffffffffffffff1681565b5f670de0b6b3a7640000611072610f4c565b60015f8573ffffffffffffffffffffffffffffffffffffffff1673ffffffffffffffffffffffffffffffffffffffff1681526020019081526020015f20546110ba91906126ac565b6110c4919061271a565b9050919050565b670de0b6b3a764000081565b5f7f0000000000000000000000000000000000000000000000000000000000000000905090565b6002602052805f5260405f205f915090505481565b5f5f5f60015f8573ffffffffffffffffffffffffffffffffffffffff1673ffffffffffffffffffffffffffffffffffffffff1681526020019081526020015f205460025f8673ffffffffffffffffffffffffffffffffffffffff1673ffffffffffffffffffffffffffffffffffffffff1681526020019081526020015f205461119b86611481565b9250925092509193909250565b6111b06115e9565b8060025f3373ffffffffffffffffffffffffffffffffffffffff1673ffffffffffffffffffffffffffffffffffffffff1681526020019081526020015f20541015611230576040517f08c379a000000000000000000000000000000000000000000000000000000000815260040161122790612794565b60405180910390fd5b8060025f3373ffffffffffffffffffffffffffffffffffffffff1673ffffffffffffffffffffffffffffffffffffffff1681526020019081526020015f205f82825461127c9190611fce565b925050819055503373ffffffffffffffffffffffffffffffffffffffff167f7905125cbd666eb0e24f00560aac64ba31581dd5958c518bb61480c0f90ba0fc826040516112c99190611c42565b60405180910390a26112d961160b565b50565b6112e46115e9565b8060025f3373ffffffffffffffffffffffffffffffffffffffff1673ffffffffffffffffffffffffffffffffffffffff1681526020019081526020015f205f8282546113309190612139565b92505081905550670de0b6b3a764000061134933611481565b101561138a576040517f08c379a000000000000000000000000000000000000000000000000000000000815260040161138190612822565b60405180910390fd5b3373ffffffffffffffffffffffffffffffffffffffff167f509084549f5abf14d0aafaa9b169a12fc60ff95bbdc5bd7882f584013f5735be826040516113d09190611c42565b60405180910390a26113e061160b565b50565b609681565b6113f0611625565b5f73ffffffffffffffffffffffffffffffffffffffff168173ffffffffffffffffffffffffffffffffffffffff1603611460575f6040517f1e4fbdf70000000000000000000000000000000000000000000000000000000081526004016114579190611cd3565b60405180910390fd5b6114698161173d565b50565b6001602052805f5260405f205f915090505481565b5f5f60025f8473ffffffffffffffffffffffffffffffffffffffff1673ffffffffffffffffffffffffffffffffffffffff1681526020019081526020015f2054036114ee577fffffffffffffffffffffffffffffffffffffffffffffffffffffffffffffffff90506115e4565b5f6114f883611060565b90505f606460035f8673ffffffffffffffffffffffffffffffffffffffff1673ffffffffffffffffffffffffffffffffffffffff1681526020019081526020015f205460025f8773ffffffffffffffffffffffffffffffffffffffff1673ffffffffffffffffffffffffffffffffffffffff1681526020019081526020015f205461158391906126ac565b61158d919061271a565b90505f81036115c0577fffffffffffffffffffffffffffffffffffffffffffffffffffffffffffffffff925050506115e4565b80670de0b6b3a7640000836115d591906126ac565b6115df919061271a565b925050505b919050565b6115f16119b8565b60026116036115fe6119f9565b611a22565b5f0181905550565b600161161d6116186119f9565b611a22565b5f0181905550565b61162d611a2b565b73ffffffffffffffffffffffffffffffffffffffff1661164b610f25565b73ffffffffffffffffffffffffffffffffffffffff16146116aa5761166e611a2b565b6040517f118cdaa70000000000000000000000000000000000000000000000000000000081526004016116a19190611cd3565b60405180910390fd5b565b60045f9054906101000a900473ffffffffffffffffffffffffffffffffffffffff1673ffffffffffffffffffffffffffffffffffffffff163373ffffffffffffffffffffffffffffffffffffffff161461173b576040517f08c379a00000000000000000000000000000000000000000000000000000000081526004016117329061288a565b60405180910390fd5b565b5f5f5f9054906101000a900473ffffffffffffffffffffffffffffffffffffffff169050815f5f6101000a81548173ffffffffffffffffffffffffffffffffffffffff021916908373ffffffffffffffffffffffffffffffffffffffff1602179055508173ffffffffffffffffffffffffffffffffffffffff168173ffffffffffffffffffffffffffffffffffffffff167f8be0079c531659141344cd1fd0a4f28419497f9722a3daafe3b4186f6b6457e060405160405180910390a35050565b600181608001515114611846576040517f08c379a000000000000000000000000000000000000000000000000000000000815260040161183d906128f2565b60405180910390fd5b5f81608001515f8151811061185e5761185d612910565b5b60200260200101516020015190505f82604001518060200190518101906118859190612978565b90508160015f8373ffffffffffffffffffffffffffffffffffffffff1673ffffffffffffffffffffffffffffffffffffffff1681526020019081526020015f205f8282546118d39190612139565b925050819055505f60035f8373ffffffffffffffffffffffffffffffffffffffff1673ffffffffffffffffffffffffffffffffffffffff1681526020019081526020015f20540361196257609660035f8373ffffffffffffffffffffffffffffffffffffffff1673ffffffffffffffffffffffffffffffffffffffff1681526020019081526020015f20819055505b8073ffffffffffffffffffffffffffffffffffffffff167ffe671c76cdf692b140b5703c07cfb25d42ddaa92d6566df7d188db5acf436bc88360016040516119ab92919061216c565b60405180910390a2505050565b6119c0611a32565b156119f7576040517f3ee5aeb500000000000000000000000000000000000000000000000000000000815260040160405180910390fd5b565b5f7f9b779b17422d0df92223018b32b4d1fa46e071723d6817e2486d003becc55f005f1b905090565b5f819050919050565b5f33905090565b5f6002611a45611a406119f9565b611a22565b5f015414905090565b5f604051905090565b5f5ffd5b5f5ffd5b5f7fffffffff0000000000000000000000000000000000000000000000000000000082169050919050565b611a9381611a5f565b8114611a9d575f5ffd5b50565b5f81359050611aae81611a8a565b92915050565b5f60208284031215611ac957611ac8611a57565b5b5f611ad684828501611aa0565b91505092915050565b5f8115159050919050565b611af381611adf565b82525050565b5f602082019050611b0c5f830184611aea565b92915050565b5f73ffffffffffffffffffffffffffffffffffffffff82169050919050565b5f611b3b82611b12565b9050919050565b611b4b81611b31565b8114611b55575f5ffd5b50565b5f81359050611b6681611b42565b92915050565b5f60208284031215611b8157611b80611a57565b5b5f611b8e84828501611b58565b91505092915050565b5f819050919050565b611ba981611b97565b8114611bb3575f5ffd5b50565b5f81359050611bc481611ba0565b92915050565b5f5f60408385031215611be057611bdf611a57565b5b5f611bed85828601611b58565b9250506020611bfe85828601611bb6565b9150509250929050565b5f60208284031215611c1d57611c1c611a57565b5b5f611c2a84828501611bb6565b91505092915050565b611c3c81611b97565b82525050565b5f602082019050611c555f830184611c33565b92915050565b5f5ffd5b5f60a08284031215611c7457611c73611c5b565b5b81905092915050565b5f60208284031215611c9257611c91611a57565b5b5f82013567ffffffffffffffff811115611caf57611cae611a5b565b5b611cbb84828501611c5f565b91505092915050565b611ccd81611b31565b82525050565b5f602082019050611ce65f830184611cc4565b92915050565b5f606082019050611cff5f830186611c33565b611d0c6020830185611c33565b611d196040830184611c33565b949350505050565b5f82825260208201905092915050565b7f53656e7469656e743a2055736572206973204865616c746879000000000000005f82015250565b5f611d65601983611d21565b9150611d7082611d31565b602082019050919050565b5f6020820190508181035f830152611d9281611d59565b9050919050565b5f81905092915050565b50565b5f611db15f83611d99565b9150611dbc82611da3565b5f82019050919050565b5f611dd082611da6565b9150819050919050565b7f4c69717569646174696f6e206661696c656400000000000000000000000000005f82015250565b5f611e0e601283611d21565b9150611e1982611dda565b602082019050919050565b5f6020820190508181035f830152611e3b81611e02565b9050919050565b5f604082019050611e555f830185611c33565b611e626020830184611c33565b9392505050565b7f496e76616c6964204164647265737300000000000000000000000000000000005f82015250565b5f611e9d600f83611d21565b9150611ea882611e69565b602082019050919050565b5f6020820190508181035f830152611eca81611e91565b9050919050565b7f53656e7469656e743a20536166657479206272656163680000000000000000005f82015250565b5f611f05601783611d21565b9150611f1082611ed1565b602082019050919050565b5f6020820190508181035f830152611f3281611ef9565b9050919050565b7f53656e7469656e743a20496e73756666696369656e742062616c616e636500005f82015250565b5f611f6d601e83611d21565b9150611f7882611f39565b602082019050919050565b5f6020820190508181035f830152611f9a81611f61565b9050919050565b7f4e487b71000000000000000000000000000000000000000000000000000000005f52601160045260245ffd5b5f611fd882611b97565b9150611fe383611b97565b9250828203905081811115611ffb57611ffa611fa1565b5b92915050565b7f53656e7469656e743a20556e73616665207769746864726177616c00000000005f82015250565b5f612035601b83611d21565b915061204082612001565b602082019050919050565b5f6020820190508181035f83015261206281612029565b9050919050565b7f53656e7469656e743a205472616e73666572206661696c6564000000000000005f82015250565b5f61209d601983611d21565b91506120a882612069565b602082019050919050565b5f6020820190508181035f8301526120ca81612091565b9050919050565b7f53656e7469656e743a205a65726f206465706f736974000000000000000000005f82015250565b5f612105601683611d21565b9150612110826120d1565b602082019050919050565b5f6020820190508181035f830152612132816120f9565b9050919050565b5f61214382611b97565b915061214e83611b97565b925082820190508082111561216657612165611fa1565b5b92915050565b5f60408201905061217f5f830185611c33565b61218c6020830184611aea565b9392505050565b5f5ffd5b5f601f19601f8301169050919050565b7f4e487b71000000000000000000000000000000000000000000000000000000005f52604160045260245ffd5b6121dd82612197565b810181811067ffffffffffffffff821117156121fc576121fb6121a7565b5b80604052505050565b5f61220e611a4e565b905061221a82826121d4565b919050565b5f5ffd5b5f819050919050565b61223581612223565b811461223f575f5ffd5b50565b5f813590506122508161222c565b92915050565b5f67ffffffffffffffff82169050919050565b61227281612256565b811461227c575f5ffd5b50565b5f8135905061228d81612269565b92915050565b5f5ffd5b5f5ffd5b5f67ffffffffffffffff8211156122b5576122b46121a7565b5b6122be82612197565b9050602081019050919050565b828183375f83830152505050565b5f6122eb6122e68461229b565b612205565b90508281526020810184848401111561230757612306612297565b5b6123128482856122cb565b509392505050565b5f82601f83011261232e5761232d612293565b5b813561233e8482602086016122d9565b91505092915050565b5f67ffffffffffffffff821115612361576123606121a7565b5b602082029050602081019050919050565b5f5ffd5b5f6040828403121561238b5761238a612193565b5b6123956040612205565b90505f6123a484828501611b58565b5f8301525060206123b784828501611bb6565b60208301525092915050565b5f6123d56123d084612347565b612205565b905080838252602082019050604084028301858111156123f8576123f7612372565b5b835b81811015612421578061240d8882612376565b8452602084019350506040810190506123fa565b5050509392505050565b5f82601f83011261243f5761243e612293565b5b813561244f8482602086016123c3565b91505092915050565b5f60a0828403121561246d5761246c612193565b5b61247760a0612205565b90505f61248684828501612242565b5f8301525060206124998482850161227f565b602083015250604082013567ffffffffffffffff8111156124bd576124bc61221f565b5b6124c98482850161231a565b604083015250606082013567ffffffffffffffff8111156124ed576124ec61221f565b5b6124f98482850161231a565b606083015250608082013567ffffffffffffffff81111561251d5761251c61221f565b5b6125298482850161242b565b60808301525092915050565b5f6125403683612458565b9050919050565b5f69ffffffffffffffffffff82169050919050565b61256581612547565b811461256f575f5ffd5b50565b5f815190506125808161255c565b92915050565b5f819050919050565b61259881612586565b81146125a2575f5ffd5b50565b5f815190506125b38161258f565b92915050565b5f815190506125c781611ba0565b92915050565b5f5f5f5f5f60a086880312156125e6576125e5611a57565b5b5f6125f388828901612572565b9550506020612604888289016125a5565b9450506040612615888289016125b9565b9350506060612626888289016125b9565b925050608061263788828901612572565b9150509295509295909350565b7f496e76616c6964204f7261636c652050726963650000000000000000000000005f82015250565b5f612678601483611d21565b915061268382612644565b602082019050919050565b5f6020820190508181035f8301526126a58161266c565b9050919050565b5f6126b682611b97565b91506126c183611b97565b92508282026126cf81611b97565b915082820484148315176126e6576126e5611fa1565b5b5092915050565b7f4e487b71000000000000000000000000000000000000000000000000000000005f52601260045260245ffd5b5f61272482611b97565b915061272f83611b97565b92508261273f5761273e6126ed565b5b828204905092915050565b7f53656e7469656e743a204f7665722d7265706179696e670000000000000000005f82015250565b5f61277e601783611d21565b91506127898261274a565b602082019050919050565b5f6020820190508181035f8301526127ab81612772565b9050919050565b7f53656e7469656e743a20496e73756666696369656e7420636f6c6c61746572615f8201527f6c00000000000000000000000000000000000000000000000000000000000000602082015250565b5f61280c602183611d21565b9150612817826127b2565b604082019050919050565b5f6020820190508181035f83015261283981612800565b9050919050565b7f53656e7469656e743a204f6e6c79204149204167656e740000000000000000005f82015250565b5f612874601783611d21565b915061287f82612840565b602082019050919050565b5f6020820190508181035f8301526128a181612868565b9050919050565b7f53656e7469656e743a204f6e6c79203120746f6b656e20616c6c6f77656400005f82015250565b5f6128dc601e83611d21565b91506128e7826128a8565b602082019050919050565b5f6020820190508181035f830152612909816128d0565b9050919050565b7f4e487b71000000000000000000000000000000000000000000000000000000005f52603260045260245ffd5b5f61294782611b12565b9050919050565b6129578161293d565b8114612961575f5ffd5b50565b5f815190506129728161294e565b92915050565b5f6020828403121561298d5761298c611a57565b5b5f61299a84828501612964565b9150509291505056fea2646970667358221220767c1ae631c68694ec0c69a76205a55b46714acf10bef3e84d589985a01daa9e64736f6c63430008210033","linkReferences":{}},"methodIdentifiers":{"BASE_RATIO()":"dd1dc325","PRECISION()":"aaf5eb68","ccipReceive((bytes32,uint64,bytes,bytes,(address,uint256)[]))":"85572ffb","depositCollateral()":"6f758140","getCollateralValue(address)":"97904e42","getHealthFactor(address)":"fe6bcd7c","getLatestPrice()":"8e15f473","getRouter()":"b0f479a1","getUserVaultStats(address)":"b9b03fd7","liquidate(address)":"2f865568","mintSynthetic(uint256)":"cee0c184","owner()":"8da5cb5b","renounceOwnership()":"715018a6","repaySynthetic(uint256)":"bf6423b6","sentientAgent()":"92411dbe","setDynamicCollateralRatio(address,uint256)":"5089b584","supportsInterface(bytes4)":"01ffc9a7","transferOwnership(address)":"f2fde38b","updateAgent(address)":"49f41a42","userCollateral(address)":"f69f1e4a","userCollateralRatio(address)":"7b99dd66","userDebt(address)":"b69e5c77","withdrawCollateral(uint256)":"6112fe2e"},"id":4}